{
  "address": "0x8678320e9C30532b82dD903eBc90833e7506D35F",
  "abi": [
    {
      "anonymous": false,
      "inputs": [
        {
          "indexed": false,
          "internalType": "uint8",
          "name": "version",
          "type": "uint8"
        }
      ],
      "name": "Initialized",
      "type": "event"
    },
    {
      "inputs": [],
      "name": "WKLAY",
      "outputs": [
        {
          "internalType": "address",
          "name": "",
          "type": "address"
        }
      ],
      "stateMutability": "view",
      "type": "function"
    },
    {
      "inputs": [],
      "name": "factory",
      "outputs": [
        {
          "internalType": "contract IUniswapV2Factory",
          "name": "",
          "type": "address"
        }
      ],
      "stateMutability": "view",
      "type": "function"
    },
    {
      "inputs": [
        {
          "internalType": "address",
          "name": "token0",
          "type": "address"
        },
        {
          "internalType": "address",
          "name": "token1",
          "type": "address"
        }
      ],
      "name": "getReserve",
      "outputs": [
        {
          "internalType": "uint256",
          "name": "reserve0",
          "type": "uint256"
        },
        {
          "internalType": "uint256",
          "name": "reserve1",
          "type": "uint256"
        }
      ],
      "stateMutability": "view",
      "type": "function"
    },
    {
      "inputs": [
        {
          "internalType": "address",
          "name": "_factory",
          "type": "address"
        },
        {
          "internalType": "address",
          "name": "_wklay",
          "type": "address"
        }
      ],
      "name": "initialize",
      "outputs": [],
      "stateMutability": "nonpayable",
      "type": "function"
    }
  ],
  "transactionHash": "0x7219c03743ee1aafc8ded7a64f9727b9a43a7b78c5b3ccdd2369e443f026ce49",
  "args": [],
  "numDeployments": 1,
  "solcInputHash": "42f6250ef7f91c4bbdbba6bdf3ac95e6",
  "bytecode": "0x608060405234801561001057600080fd5b50610706806100206000396000f3fe608060405234801561001057600080fd5b506004361061004c5760003560e01c8063249502d714610051578063485cc95514610095578063c45a0155146100aa578063cbc3ab53146100d0575b600080fd5b60015473ffffffffffffffffffffffffffffffffffffffff165b60405173ffffffffffffffffffffffffffffffffffffffff90911681526020015b60405180910390f35b6100a86100a3366004610600565b6100f8565b005b60005461006b9062010000900473ffffffffffffffffffffffffffffffffffffffff1681565b6100e36100de366004610600565b610304565b6040805192835260208301919091520161008c565b600054610100900460ff16158080156101185750600054600160ff909116105b806101325750303b158015610132575060005460ff166001145b6101c2576040517f08c379a000000000000000000000000000000000000000000000000000000000815260206004820152602e60248201527f496e697469616c697a61626c653a20636f6e747261637420697320616c72656160448201527f647920696e697469616c697a6564000000000000000000000000000000000000606482015260840160405180910390fd5b600080547fffffffffffffffffffffffffffffffffffffffffffffffffffffffffffffff00166001179055801561022057600080547fffffffffffffffffffffffffffffffffffffffffffffffffffffffffffff00ff166101001790555b600080547fffffffffffffffffffff0000000000000000000000000000000000000000ffff166201000073ffffffffffffffffffffffffffffffffffffffff8681169190910291909117909155600180547fffffffffffffffffffffffff00000000000000000000000000000000000000001691841691909117905580156102ff57600080547fffffffffffffffffffffffffffffffffffffffffffffffffffffffffffff00ff169055604051600181527f7f26b83ff96e1f2b6a682f133852f6798a09c465da95921460cefb38474024989060200160405180910390a15b505050565b60008073ffffffffffffffffffffffffffffffffffffffff8416156103295783610343565b60015473ffffffffffffffffffffffffffffffffffffffff165b935073ffffffffffffffffffffffffffffffffffffffff8316156103675782610381565b60015473ffffffffffffffffffffffffffffffffffffffff165b600080546040517fe6a4390500000000000000000000000000000000000000000000000000000000815273ffffffffffffffffffffffffffffffffffffffff88811660048301528085166024830152939650919262010000909104169063e6a439059060440160206040518083038186803b1580156103ff57600080fd5b505afa158015610413573d6000803e3d6000fd5b505050506040513d601f19601f820116820180604052508101906104379190610639565b905073ffffffffffffffffffffffffffffffffffffffff81166104615760008092509250506105d4565b6000808273ffffffffffffffffffffffffffffffffffffffff16630902f1ac6040518163ffffffff1660e01b815260040160606040518083038186803b1580156104aa57600080fd5b505afa1580156104be573d6000803e3d6000fd5b505050506040513d601f19601f820116820180604052508101906104e29190610680565b50915091508673ffffffffffffffffffffffffffffffffffffffff168373ffffffffffffffffffffffffffffffffffffffff16630dfe16816040518163ffffffff1660e01b815260040160206040518083038186803b15801561054457600080fd5b505afa158015610558573d6000803e3d6000fd5b505050506040513d601f19601f8201168201806040525081019061057c9190610639565b73ffffffffffffffffffffffffffffffffffffffff1614156105b6576dffffffffffffffffffffffffffff91821694501691506105d49050565b6dffffffffffffffffffffffffffff90811694501691506105d49050565b9250929050565b73ffffffffffffffffffffffffffffffffffffffff811681146105fd57600080fd5b50565b6000806040838503121561061357600080fd5b823561061e816105db565b9150602083013561062e816105db565b809150509250929050565b60006020828403121561064b57600080fd5b8151610656816105db565b9392505050565b80516dffffffffffffffffffffffffffff8116811461067b57600080fd5b919050565b60008060006060848603121561069557600080fd5b61069e8461065d565b92506106ac6020850161065d565b9150604084015163ffffffff811681146106c557600080fd5b80915050925092509256fea264697066735822122031a8d205f417e128ebea74e9574bbabde95a23afc89f297f0cdd1feede100da464736f6c63430008090033",
  "devdoc": {
    "kind": "dev",
    "methods": {},
    "version": 1
  },
  "userdoc": {
    "kind": "user",
    "methods": {},
    "version": 1
  },
  "storageLayout": {
    "storage": [
      {
        "astId": 138,
        "contract": "contracts/reserve/UniswapReserve.sol:UniswapReserve",
        "label": "_initialized",
        "offset": 0,
        "slot": "0",
        "type": "t_uint8"
      },
      {
        "astId": 141,
        "contract": "contracts/reserve/UniswapReserve.sol:UniswapReserve",
        "label": "_initializing",
        "offset": 1,
        "slot": "0",
        "type": "t_bool"
      },
      {
        "astId": 2936,
        "contract": "contracts/reserve/UniswapReserve.sol:UniswapReserve",
        "label": "factory",
        "offset": 2,
        "slot": "0",
        "type": "t_contract(IUniswapV2Factory)2260"
      },
      {
        "astId": 2938,
        "contract": "contracts/reserve/UniswapReserve.sol:UniswapReserve",
        "label": "wklay",
        "offset": 0,
        "slot": "1",
        "type": "t_address"
      }
    ],
    "types": {
      "t_address": {
        "encoding": "inplace",
        "label": "address",
        "numberOfBytes": "20"
      },
      "t_bool": {
        "encoding": "inplace",
        "label": "bool",
        "numberOfBytes": "1"
      },
      "t_contract(IUniswapV2Factory)2260": {
        "encoding": "inplace",
        "label": "contract IUniswapV2Factory",
        "numberOfBytes": "20"
      },
      "t_uint8": {
        "encoding": "inplace",
        "label": "uint8",
        "numberOfBytes": "1"
      }
    }
  }
}