{
  "address": "0xcaEfAEE0Acb65A9Ca99a7bD97EBF92888f4035D8",
  "abi": [
    {
      "inputs": [],
      "name": "ALREADY_REGISTERED",
      "type": "error"
    },
    {
      "inputs": [],
      "name": "NOT_REGISTERED",
      "type": "error"
    },
    {
      "inputs": [],
      "name": "NOT_REGISTERED_ORACLE",
      "type": "error"
    },
    {
      "inputs": [],
      "name": "ZERO_ADDRESS",
      "type": "error"
    },
    {
      "anonymous": false,
      "inputs": [
        {
          "indexed": false,
          "internalType": "uint8",
          "name": "version",
          "type": "uint8"
        }
      ],
      "name": "Initialized",
      "type": "event"
    },
    {
      "anonymous": false,
      "inputs": [
        {
          "indexed": true,
          "internalType": "address",
          "name": "previousOwner",
          "type": "address"
        },
        {
          "indexed": true,
          "internalType": "address",
          "name": "newOwner",
          "type": "address"
        }
      ],
      "name": "OwnershipTransferred",
      "type": "event"
    },
    {
      "inputs": [],
      "name": "DECIMAL",
      "outputs": [
        {
          "internalType": "uint256",
          "name": "",
          "type": "uint256"
        }
      ],
      "stateMutability": "view",
      "type": "function"
    },
    {
      "inputs": [
        {
          "internalType": "uint256",
          "name": "",
          "type": "uint256"
        }
      ],
      "name": "baseTokens",
      "outputs": [
        {
          "internalType": "address",
          "name": "",
          "type": "address"
        }
      ],
      "stateMutability": "view",
      "type": "function"
    },
    {
      "inputs": [],
      "name": "consultKlayPrice",
      "outputs": [
        {
          "internalType": "uint256",
          "name": "price",
          "type": "uint256"
        }
      ],
      "stateMutability": "view",
      "type": "function"
    },
    {
      "inputs": [
        {
          "internalType": "address",
          "name": "token",
          "type": "address"
        }
      ],
      "name": "consultPrice",
      "outputs": [
        {
          "internalType": "uint256",
          "name": "price",
          "type": "uint256"
        }
      ],
      "stateMutability": "view",
      "type": "function"
    },
    {
      "inputs": [
        {
          "internalType": "address",
          "name": "token",
          "type": "address"
        },
        {
          "internalType": "address[]",
          "name": "referenceTokens",
          "type": "address[]"
        }
      ],
      "name": "consultPriceFrom",
      "outputs": [
        {
          "internalType": "uint256",
          "name": "price",
          "type": "uint256"
        }
      ],
      "stateMutability": "view",
      "type": "function"
    },
    {
      "inputs": [],
      "name": "initialize",
      "outputs": [],
      "stateMutability": "nonpayable",
      "type": "function"
    },
    {
      "inputs": [
        {
          "internalType": "address",
          "name": "",
          "type": "address"
        }
      ],
      "name": "isBaseToken",
      "outputs": [
        {
          "internalType": "bool",
          "name": "",
          "type": "bool"
        }
      ],
      "stateMutability": "view",
      "type": "function"
    },
    {
      "inputs": [
        {
          "internalType": "address",
          "name": "",
          "type": "address"
        }
      ],
      "name": "isPairReserve",
      "outputs": [
        {
          "internalType": "bool",
          "name": "",
          "type": "bool"
        }
      ],
      "stateMutability": "view",
      "type": "function"
    },
    {
      "inputs": [],
      "name": "owner",
      "outputs": [
        {
          "internalType": "address",
          "name": "",
          "type": "address"
        }
      ],
      "stateMutability": "view",
      "type": "function"
    },
    {
      "inputs": [
        {
          "internalType": "uint256",
          "name": "",
          "type": "uint256"
        }
      ],
      "name": "pairReserves",
      "outputs": [
        {
          "internalType": "address",
          "name": "",
          "type": "address"
        }
      ],
      "stateMutability": "view",
      "type": "function"
    },
    {
      "inputs": [
        {
          "internalType": "address",
          "name": "token",
          "type": "address"
        }
      ],
      "name": "registerBaseToken",
      "outputs": [],
      "stateMutability": "nonpayable",
      "type": "function"
    },
    {
      "inputs": [
        {
          "internalType": "address",
          "name": "_pairReserve",
          "type": "address"
        }
      ],
      "name": "registerPairReserve",
      "outputs": [],
      "stateMutability": "nonpayable",
      "type": "function"
    },
    {
      "inputs": [
        {
          "internalType": "address",
          "name": "_token",
          "type": "address"
        },
        {
          "internalType": "address",
          "name": "_priceOracle",
          "type": "address"
        }
      ],
      "name": "registerTokenOracle",
      "outputs": [],
      "stateMutability": "nonpayable",
      "type": "function"
    },
    {
      "inputs": [],
      "name": "renounceOwnership",
      "outputs": [],
      "stateMutability": "nonpayable",
      "type": "function"
    },
    {
      "inputs": [
        {
          "internalType": "address",
          "name": "",
          "type": "address"
        }
      ],
      "name": "tokenPriceOracles",
      "outputs": [
        {
          "internalType": "address",
          "name": "",
          "type": "address"
        }
      ],
      "stateMutability": "view",
      "type": "function"
    },
    {
      "inputs": [
        {
          "internalType": "address",
          "name": "newOwner",
          "type": "address"
        }
      ],
      "name": "transferOwnership",
      "outputs": [],
      "stateMutability": "nonpayable",
      "type": "function"
    },
    {
      "inputs": [
        {
          "internalType": "address",
          "name": "token",
          "type": "address"
        }
      ],
      "name": "unRegisterBaseToken",
      "outputs": [],
      "stateMutability": "nonpayable",
      "type": "function"
    },
    {
      "inputs": [
        {
          "internalType": "address",
          "name": "_token",
          "type": "address"
        }
      ],
      "name": "unRegisterTokenOracle",
      "outputs": [],
      "stateMutability": "nonpayable",
      "type": "function"
    }
  ],
  "transactionHash": "0x89763af067a7003ad760e08e75c2d9e2979905d1a182f92df71c01e451542afb",
  "args": [],
  "numDeployments": 1,
  "solcInputHash": "42f6250ef7f91c4bbdbba6bdf3ac95e6",
  "bytecode": "0x608060405234801561001057600080fd5b50611a29806100206000396000f3fe608060405234801561001057600080fd5b50600436106101365760003560e01c806385bb6a3c116100b2578063cd8e19c511610081578063e46a316d11610066578063e46a316d146102a1578063f2fde38b146102d7578063fe2ab286146102ea57600080fd5b8063cd8e19c51461027b578063db248cb91461028e57600080fd5b806385bb6a3c1461021f5780638da5cb5b14610242578063b74c9c8d14610260578063cc9ff6e11461026857600080fd5b80636ba01df81161010957806377a98d18116100ee57806377a98d18146101d15780638129fc1c146102045780638194fe9e1461020c57600080fd5b80636ba01df8146101b6578063715018a6146101c957600080fd5b8063032b1e941461013b57806328f25f9e14610150578063328123a2146101765780636ab55fd9146101ae575b600080fd5b61014e61014936600461157f565b6102fd565b005b61016361015e3660046115c9565b61045b565b6040519081526020015b60405180910390f35b6101896101843660046116bf565b610470565b60405173ffffffffffffffffffffffffffffffffffffffff909116815260200161016d565b610163600681565b61014e6101c436600461157f565b6104a7565b61014e610616565b6101f46101df36600461157f565b60656020526000908152604090205460ff1681565b604051901515815260200161016d565b61014e61062a565b61016361021a36600461157f565b6107c1565b6101f461022d36600461157f565b60676020526000908152604090205460ff1681565b60335473ffffffffffffffffffffffffffffffffffffffff16610189565b610163610908565b61014e61027636600461157f565b6109d8565b61014e6102893660046116d8565b610c0c565b61018961029c3660046116bf565b610cb4565b6101896102af36600461157f565b60696020526000908152604090205473ffffffffffffffffffffffffffffffffffffffff1681565b61014e6102e536600461157f565b610cc4565b61014e6102f836600461157f565b610d78565b610305610dcc565b73ffffffffffffffffffffffffffffffffffffffff8116610352576040517f538ba4f900000000000000000000000000000000000000000000000000000000815260040160405180910390fd5b73ffffffffffffffffffffffffffffffffffffffff811660009081526065602052604090205460ff16156103b2576040517ff577854000000000000000000000000000000000000000000000000000000000815260040160405180910390fd5b73ffffffffffffffffffffffffffffffffffffffff16600081815260656020526040812080547fffffffffffffffffffffffffffffffffffffffffffffffffffffffffffffff001660019081179091556066805491820181559091527f46501879b8ca8525e8c2fd519e2fbfcfa2ebea26501294aa02cbfcfb12e943540180547fffffffffffffffffffffffff0000000000000000000000000000000000000000169091179055565b60006104678383610e4d565b90505b92915050565b6068818154811061048057600080fd5b60009182526020909120015473ffffffffffffffffffffffffffffffffffffffff16905081565b6104af610dcc565b73ffffffffffffffffffffffffffffffffffffffff8181166000908152606960205260409020541661050d576040517fae45917c00000000000000000000000000000000000000000000000000000000815260040160405180910390fd5b73ffffffffffffffffffffffffffffffffffffffff811660009081526067602052604090205460ff161561056d576040517ff577854000000000000000000000000000000000000000000000000000000000815260040160405180910390fd5b73ffffffffffffffffffffffffffffffffffffffff16600081815260676020526040812080547fffffffffffffffffffffffffffffffffffffffffffffffffffffffffffffff001660019081179091556068805491820181559091527fa2153420d844928b4421650203c77babc8b33d7f2e7b450e2966db0c220977530180547fffffffffffffffffffffffff0000000000000000000000000000000000000000169091179055565b61061e610dcc565b6106286000610f76565b565b600054610100900460ff161580801561064a5750600054600160ff909116105b806106645750303b158015610664575060005460ff166001145b6106f5576040517f08c379a000000000000000000000000000000000000000000000000000000000815260206004820152602e60248201527f496e697469616c697a61626c653a20636f6e747261637420697320616c72656160448201527f647920696e697469616c697a656400000000000000000000000000000000000060648201526084015b60405180910390fd5b600080547fffffffffffffffffffffffffffffffffffffffffffffffffffffffffffffff00166001179055801561075357600080547fffffffffffffffffffffffffffffffffffffffffffffffffffffffffffff00ff166101001790555b61075b610fed565b80156107be57600080547fffffffffffffffffffffffffffffffffffffffffffffffffffffffffffff00ff169055604051600181527f7f26b83ff96e1f2b6a682f133852f6798a09c465da95921460cefb38474024989060200160405180910390a15b50565b73ffffffffffffffffffffffffffffffffffffffff8082166000908152606960205260408120549091168015610897576040517f8194fe9e00000000000000000000000000000000000000000000000000000000815273ffffffffffffffffffffffffffffffffffffffff8481166004830152821690638194fe9e9060240160206040518083038186803b15801561085857600080fd5b505afa15801561086c573d6000803e3d6000fd5b505050506040513d601f19601f82011682018060405250810190610890919061170b565b9392505050565b6108908360688054806020026020016040519081016040528092919081815260200182805480156108fe57602002820191906000526020600020905b815473ffffffffffffffffffffffffffffffffffffffff1681526001909101906020018083116108d3575b5050505050610e4d565b600080805260696020527f5843af22e99e7c98370145a5056245c244ce8ee852f4ef5e6d6a8e410a18cf41546040517f8194fe9e0000000000000000000000000000000000000000000000000000000081526004810183905273ffffffffffffffffffffffffffffffffffffffff90911690638194fe9e9060240160206040518083038186803b15801561099b57600080fd5b505afa1580156109af573d6000803e3d6000fd5b505050506040513d601f19601f820116820180604052508101906109d3919061170b565b905090565b6109e0610dcc565b73ffffffffffffffffffffffffffffffffffffffff811660009081526067602052604090205460ff16610a3f576040517f60f4985300000000000000000000000000000000000000000000000000000000815260040160405180910390fd5b73ffffffffffffffffffffffffffffffffffffffff8116600090815260676020526040812080547fffffffffffffffffffffffffffffffffffffffffffffffffffffffffffffff001690555b606854610a9a90600190611753565b811015610b9f57600060688281548110610ab657610ab661176a565b60009182526020909120015473ffffffffffffffffffffffffffffffffffffffff90811691508316811415610b8c5760688054610af590600190611753565b81548110610b0557610b0561176a565b6000918252602090912001546068805473ffffffffffffffffffffffffffffffffffffffff9092169184908110610b3e57610b3e61176a565b9060005260206000200160006101000a81548173ffffffffffffffffffffffffffffffffffffffff021916908373ffffffffffffffffffffffffffffffffffffffff16021790555050610b9f565b5080610b9781611799565b915050610a8b565b506068805480610bb157610bb16117d2565b60008281526020902081017fffffffffffffffffffffffffffffffffffffffffffffffffffffffffffffffff90810180547fffffffffffffffffffffffff000000000000000000000000000000000000000016905501905550565b610c14610dcc565b73ffffffffffffffffffffffffffffffffffffffff8116610c61576040517f538ba4f900000000000000000000000000000000000000000000000000000000815260040160405180910390fd5b73ffffffffffffffffffffffffffffffffffffffff918216600090815260696020526040902080547fffffffffffffffffffffffff00000000000000000000000000000000000000001691909216179055565b6066818154811061048057600080fd5b610ccc610dcc565b73ffffffffffffffffffffffffffffffffffffffff8116610d6f576040517f08c379a000000000000000000000000000000000000000000000000000000000815260206004820152602660248201527f4f776e61626c653a206e6577206f776e657220697320746865207a65726f206160448201527f646472657373000000000000000000000000000000000000000000000000000060648201526084016106ec565b6107be81610f76565b610d80610dcc565b73ffffffffffffffffffffffffffffffffffffffff16600090815260696020526040902080547fffffffffffffffffffffffff0000000000000000000000000000000000000000169055565b60335473ffffffffffffffffffffffffffffffffffffffff163314610628576040517f08c379a000000000000000000000000000000000000000000000000000000000815260206004820181905260248201527f4f776e61626c653a2063616c6c6572206973206e6f7420746865206f776e657260448201526064016106ec565b6000806000610e5c858561108c565b915091508160001480610e6d575080155b15610e7d5760009250505061046a565b60008573ffffffffffffffffffffffffffffffffffffffff1663313ce5676040518163ffffffff1660e01b815260040160206040518083038186803b158015610ec557600080fd5b505afa158015610ed9573d6000803e3d6000fd5b505050506040513d601f19601f82011682018060405250810190610efd9190611801565b60ff1690506012811015610f4a57610f4083610f1b6006600a61193c565b610f26846012611753565b610f3190600a61193c565b610f3b9086611948565b61110a565b935050505061046a565b610f40836012610f5b846006611985565b610f659190611753565b610f7090600a61193c565b8461110a565b6033805473ffffffffffffffffffffffffffffffffffffffff8381167fffffffffffffffffffffffff0000000000000000000000000000000000000000831681179093556040519116919082907f8be0079c531659141344cd1fd0a4f28419497f9722a3daafe3b4186f6b6457e090600090a35050565b600054610100900460ff16611084576040517f08c379a000000000000000000000000000000000000000000000000000000000815260206004820152602b60248201527f496e697469616c697a61626c653a20636f6e7472616374206973206e6f74206960448201527f6e697469616c697a696e6700000000000000000000000000000000000000000060648201526084016106ec565b6106286111db565b60008060005b83518110156111025760008482815181106110af576110af61176a565b602002602001015190506000806110c6838961127b565b915091506110d4838361138a565b6110de9087611985565b95506110ea8186611985565b945050505080806110fa90611799565b915050611092565b509250929050565b600080807fffffffffffffffffffffffffffffffffffffffffffffffffffffffffffffffff8587098587029250828110838203039150508060001415611162576000841161115757600080fd5b508290049050610890565b80841161116e57600080fd5b6000848688096000868103871696879004966002600389028118808a02820302808a02820302808a02820302808a02820302808a02820302808a02909103029181900381900460010186841190950394909402919094039290920491909117919091029150509392505050565b600054610100900460ff16611272576040517f08c379a000000000000000000000000000000000000000000000000000000000815260206004820152602b60248201527f496e697469616c697a61626c653a20636f6e7472616374206973206e6f74206960448201527f6e697469616c697a696e6700000000000000000000000000000000000000000060648201526084016106ec565b61062833610f76565b60008060005b606654811015611102576000606682815481106112a0576112a061176a565b60009182526020822001546040517fcbc3ab5300000000000000000000000000000000000000000000000000000000815273ffffffffffffffffffffffffffffffffffffffff8981166004830152888116602483015290911692508190839063cbc3ab5390604401604080518083038186803b15801561131f57600080fd5b505afa158015611333573d6000803e3d6000fd5b505050506040513d601f19601f82011682018060405250810190611357919061199d565b90925090506113668287611985565b95506113728186611985565b9450505050808061138290611799565b915050611281565b60008073ffffffffffffffffffffffffffffffffffffffff84161561142c578373ffffffffffffffffffffffffffffffffffffffff1663313ce5676040518163ffffffff1660e01b815260040160206040518083038186803b1580156113ef57600080fd5b505afa158015611403573d6000803e3d6000fd5b505050506040513d601f19601f820116820180604052508101906114279190611801565b61142f565b60125b73ffffffffffffffffffffffffffffffffffffffff8581166000818152606960205260408082205490517f8194fe9e00000000000000000000000000000000000000000000000000000000815260048101939093529394509290911690638194fe9e9060240160206040518083038186803b1580156114ad57600080fd5b505afa1580156114c1573d6000803e3d6000fd5b505050506040513d601f19601f820116820180604052508101906114e5919061170b565b905060128260ff1611156115265761151d848260066115056012876119c1565b60ff166115129190611985565b610f3b90600a61193c565b9250505061046a565b61151d846115358460126119c1565b61154090600a6119e4565b61154a9084611948565b610f3b6006600a61193c565b803573ffffffffffffffffffffffffffffffffffffffff8116811461157a57600080fd5b919050565b60006020828403121561159157600080fd5b61046782611556565b7f4e487b7100000000000000000000000000000000000000000000000000000000600052604160045260246000fd5b600080604083850312156115dc57600080fd5b6115e583611556565b915060208084013567ffffffffffffffff8082111561160357600080fd5b818601915086601f83011261161757600080fd5b8135818111156116295761162961159a565b8060051b6040517fffffffffffffffffffffffffffffffffffffffffffffffffffffffffffffffe0603f8301168101818110858211171561166c5761166c61159a565b60405291825284820192508381018501918983111561168a57600080fd5b938501935b828510156116af576116a085611556565b8452938501939285019261168f565b8096505050505050509250929050565b6000602082840312156116d157600080fd5b5035919050565b600080604083850312156116eb57600080fd5b6116f483611556565b915061170260208401611556565b90509250929050565b60006020828403121561171d57600080fd5b5051919050565b7f4e487b7100000000000000000000000000000000000000000000000000000000600052601160045260246000fd5b60008282101561176557611765611724565b500390565b7f4e487b7100000000000000000000000000000000000000000000000000000000600052603260045260246000fd5b60007fffffffffffffffffffffffffffffffffffffffffffffffffffffffffffffffff8214156117cb576117cb611724565b5060010190565b7f4e487b7100000000000000000000000000000000000000000000000000000000600052603160045260246000fd5b60006020828403121561181357600080fd5b815160ff8116811461089057600080fd5b600181815b8085111561110257817fffffffffffffffffffffffffffffffffffffffffffffffffffffffffffffffff0482111561186357611863611724565b8085161561187057918102915b93841c9390800290611829565b60008261188c5750600161046a565b816118995750600061046a565b81600181146118af57600281146118b9576118d5565b600191505061046a565b60ff8411156118ca576118ca611724565b50506001821b61046a565b5060208310610133831016604e8410600b84101617156118f8575081810a61046a565b6119028383611824565b807fffffffffffffffffffffffffffffffffffffffffffffffffffffffffffffffff0482111561193457611934611724565b029392505050565b6000610467838361187d565b6000817fffffffffffffffffffffffffffffffffffffffffffffffffffffffffffffffff048311821515161561198057611980611724565b500290565b6000821982111561199857611998611724565b500190565b600080604083850312156119b057600080fd5b505080516020909101519092909150565b600060ff821660ff8416808210156119db576119db611724565b90039392505050565b600061046760ff84168361187d56fea2646970667358221220db8a4244aeb08dbca3c8442eebb56ae0f0bfacd047b8e6ac3b3bbe1d602401ec64736f6c63430008090033",
  "devdoc": {
    "kind": "dev",
    "methods": {
      "consultPrice(address)": {
        "details": "( / DAI / USDC / USDT)     ,  0 ",
        "params": {
          "token": "  "
        }
      },
      "consultPriceFrom(address,address[])": {
        "details": "( / DAI / USDC / USDT)     , referenceToken    ",
        "params": {
          "token": "  "
        }
      },
      "owner()": {
        "details": "Returns the address of the current owner."
      },
      "renounceOwnership()": {
        "details": "Leaves the contract without owner. It will not be possible to call `onlyOwner` functions anymore. Can only be called by the current owner. NOTE: Renouncing ownership will leave the contract without an owner, thereby removing any functionality that is only available to the owner."
      },
      "transferOwnership(address)": {
        "details": "Transfers ownership of the contract to a new account (`newOwner`). Can only be called by the current owner."
      }
    },
    "stateVariables": {
      "DECIMAL": {
        "details": " price = 700574 , 0.700574$  "
      }
    },
    "version": 1
  },
  "userdoc": {
    "kind": "user",
    "methods": {
      "DECIMAL()": {
        "notice": "dollar   unit, (units = 6)"
      },
      "consultKlayPrice()": {
        "notice": "   (units : 10 ^ -6 $)"
      },
      "consultPrice(address)": {
        "notice": " price  (units : 10 ^ -6 $)"
      },
      "consultPriceFrom(address,address[])": {
        "notice": "referenceToken    price  (units : 10 ^ -6 $)"
      }
    },
    "version": 1
  },
  "storageLayout": {
    "storage": [
      {
        "astId": 138,
        "contract": "contracts/PriceOracle.sol:PriceOracle",
        "label": "_initialized",
        "offset": 0,
        "slot": "0",
        "type": "t_uint8"
      },
      {
        "astId": 141,
        "contract": "contracts/PriceOracle.sol:PriceOracle",
        "label": "_initializing",
        "offset": 1,
        "slot": "0",
        "type": "t_bool"
      },
      {
        "astId": 566,
        "contract": "contracts/PriceOracle.sol:PriceOracle",
        "label": "__gap",
        "offset": 0,
        "slot": "1",
        "type": "t_array(t_uint256)50_storage"
      },
      {
        "astId": 10,
        "contract": "contracts/PriceOracle.sol:PriceOracle",
        "label": "_owner",
        "offset": 0,
        "slot": "51",
        "type": "t_address"
      },
      {
        "astId": 130,
        "contract": "contracts/PriceOracle.sol:PriceOracle",
        "label": "__gap",
        "offset": 0,
        "slot": "52",
        "type": "t_array(t_uint256)49_storage"
      },
      {
        "astId": 708,
        "contract": "contracts/PriceOracle.sol:PriceOracle",
        "label": "isPairReserve",
        "offset": 0,
        "slot": "101",
        "type": "t_mapping(t_address,t_bool)"
      },
      {
        "astId": 711,
        "contract": "contracts/PriceOracle.sol:PriceOracle",
        "label": "pairReserves",
        "offset": 0,
        "slot": "102",
        "type": "t_array(t_address)dyn_storage"
      },
      {
        "astId": 715,
        "contract": "contracts/PriceOracle.sol:PriceOracle",
        "label": "isBaseToken",
        "offset": 0,
        "slot": "103",
        "type": "t_mapping(t_address,t_bool)"
      },
      {
        "astId": 718,
        "contract": "contracts/PriceOracle.sol:PriceOracle",
        "label": "baseTokens",
        "offset": 0,
        "slot": "104",
        "type": "t_array(t_address)dyn_storage"
      },
      {
        "astId": 722,
        "contract": "contracts/PriceOracle.sol:PriceOracle",
        "label": "tokenPriceOracles",
        "offset": 0,
        "slot": "105",
        "type": "t_mapping(t_address,t_address)"
      }
    ],
    "types": {
      "t_address": {
        "encoding": "inplace",
        "label": "address",
        "numberOfBytes": "20"
      },
      "t_array(t_address)dyn_storage": {
        "base": "t_address",
        "encoding": "dynamic_array",
        "label": "address[]",
        "numberOfBytes": "32"
      },
      "t_array(t_uint256)49_storage": {
        "base": "t_uint256",
        "encoding": "inplace",
        "label": "uint256[49]",
        "numberOfBytes": "1568"
      },
      "t_array(t_uint256)50_storage": {
        "base": "t_uint256",
        "encoding": "inplace",
        "label": "uint256[50]",
        "numberOfBytes": "1600"
      },
      "t_bool": {
        "encoding": "inplace",
        "label": "bool",
        "numberOfBytes": "1"
      },
      "t_mapping(t_address,t_address)": {
        "encoding": "mapping",
        "key": "t_address",
        "label": "mapping(address => address)",
        "numberOfBytes": "32",
        "value": "t_address"
      },
      "t_mapping(t_address,t_bool)": {
        "encoding": "mapping",
        "key": "t_address",
        "label": "mapping(address => bool)",
        "numberOfBytes": "32",
        "value": "t_bool"
      },
      "t_uint256": {
        "encoding": "inplace",
        "label": "uint256",
        "numberOfBytes": "32"
      },
      "t_uint8": {
        "encoding": "inplace",
        "label": "uint8",
        "numberOfBytes": "1"
      }
    }
  }
}