{
  "address": "0xd5cf06818CeD47519e121EB77c8A8eA6180c4179",
  "abi": [
    {
      "anonymous": false,
      "inputs": [
        {
          "indexed": false,
          "internalType": "uint8",
          "name": "version",
          "type": "uint8"
        }
      ],
      "name": "Initialized",
      "type": "event"
    },
    {
      "anonymous": false,
      "inputs": [
        {
          "indexed": true,
          "internalType": "address",
          "name": "previousOwner",
          "type": "address"
        },
        {
          "indexed": true,
          "internalType": "address",
          "name": "newOwner",
          "type": "address"
        }
      ],
      "name": "OwnershipTransferred",
      "type": "event"
    },
    {
      "inputs": [],
      "name": "DECIMALS",
      "outputs": [
        {
          "internalType": "uint8",
          "name": "",
          "type": "uint8"
        }
      ],
      "stateMutability": "view",
      "type": "function"
    },
    {
      "inputs": [
        {
          "internalType": "address",
          "name": "token",
          "type": "address"
        }
      ],
      "name": "consultPrice",
      "outputs": [
        {
          "internalType": "uint256",
          "name": "price",
          "type": "uint256"
        }
      ],
      "stateMutability": "view",
      "type": "function"
    },
    {
      "inputs": [
        {
          "internalType": "bytes32",
          "name": "",
          "type": "bytes32"
        }
      ],
      "name": "decimalsForValue",
      "outputs": [
        {
          "internalType": "uint8",
          "name": "",
          "type": "uint8"
        }
      ],
      "stateMutability": "view",
      "type": "function"
    },
    {
      "inputs": [
        {
          "internalType": "address",
          "name": "_witnetOracle",
          "type": "address"
        }
      ],
      "name": "initialize",
      "outputs": [],
      "stateMutability": "nonpayable",
      "type": "function"
    },
    {
      "inputs": [],
      "name": "owner",
      "outputs": [
        {
          "internalType": "address",
          "name": "",
          "type": "address"
        }
      ],
      "stateMutability": "view",
      "type": "function"
    },
    {
      "inputs": [
        {
          "internalType": "address",
          "name": "token",
          "type": "address"
        },
        {
          "internalType": "bytes32",
          "name": "value",
          "type": "bytes32"
        },
        {
          "internalType": "uint8",
          "name": "decimals",
          "type": "uint8"
        }
      ],
      "name": "register",
      "outputs": [],
      "stateMutability": "nonpayable",
      "type": "function"
    },
    {
      "inputs": [],
      "name": "renounceOwnership",
      "outputs": [],
      "stateMutability": "nonpayable",
      "type": "function"
    },
    {
      "inputs": [
        {
          "internalType": "address",
          "name": "newOwner",
          "type": "address"
        }
      ],
      "name": "transferOwnership",
      "outputs": [],
      "stateMutability": "nonpayable",
      "type": "function"
    },
    {
      "inputs": [
        {
          "internalType": "address",
          "name": "",
          "type": "address"
        }
      ],
      "name": "values",
      "outputs": [
        {
          "internalType": "bytes32",
          "name": "",
          "type": "bytes32"
        }
      ],
      "stateMutability": "view",
      "type": "function"
    },
    {
      "inputs": [],
      "name": "witnetPriceRouter",
      "outputs": [
        {
          "internalType": "contract IWitnetPriceRouter",
          "name": "",
          "type": "address"
        }
      ],
      "stateMutability": "view",
      "type": "function"
    }
  ],
  "transactionHash": "0x6283572bd0b4a5d2305483d6de2fd75d2e3145d136c44bb28f938386139f4e1f",
  "args": [],
  "numDeployments": 1,
  "solcInputHash": "42f6250ef7f91c4bbdbba6bdf3ac95e6",
  "bytecode": "0x608060405234801561001057600080fd5b50610be9806100206000396000f3fe608060405234801561001057600080fd5b50600436106100be5760003560e01c80638194fe9e11610076578063c4d66de81161005b578063c4d66de8146101a3578063e24c3d34146101b6578063f2fde38b146101d957600080fd5b80638194fe9e146101725780638da5cb5b1461018557600080fd5b80634fc87f24116100a75780634fc87f24146100f757806354fe9fd71461013c578063715018a61461016a57600080fd5b806321c0cde5146100c35780632e0f2625146100d8575b600080fd5b6100d66100d1366004610909565b6101ec565b005b6100e0600681565b60405160ff90911681526020015b60405180910390f35b6065546101179073ffffffffffffffffffffffffffffffffffffffff1681565b60405173ffffffffffffffffffffffffffffffffffffffff90911681526020016100ee565b61015c61014a36600461094f565b60666020526000908152604090205481565b6040519081526020016100ee565b6100d661025a565b61015c61018036600461094f565b61026e565b60335473ffffffffffffffffffffffffffffffffffffffff16610117565b6100d66101b136600461094f565b610424565b6100e06101c4366004610971565b60676020526000908152604090205460ff1681565b6100d66101e736600461094f565b6105f7565b6101f46106ae565b73ffffffffffffffffffffffffffffffffffffffff929092166000908152606660209081526040808320849055928252606790522080547fffffffffffffffffffffffffffffffffffffffffffffffffffffffffffffff001660ff909216919091179055565b6102626106ae565b61026c600061072f565b565b73ffffffffffffffffffffffffffffffffffffffff811660009081526066602052604081205480610300576040517f08c379a000000000000000000000000000000000000000000000000000000000815260206004820152600e60248201527f4e4f545f5245474953544552454400000000000000000000000000000000000060448201526064015b60405180910390fd5b6065546040517ff78eea830000000000000000000000000000000000000000000000000000000081526004810183905260009173ffffffffffffffffffffffffffffffffffffffff169063f78eea839060240160606040518083038186803b15801561036b57600080fd5b505afa15801561037f573d6000803e3d6000fd5b505050506040513d601f19601f820116820180604052508101906103a3919061098a565b505060008381526067602052604090205490935083915060ff1660068110156103ed576103d18160066109e7565b6103dc90600a610b2c565b6103e69085610b3b565b935061041c565b600660ff8216111561041c576104046006826109e7565b61040f90600a610b2c565b6104199085610b78565b93505b505050919050565b600054610100900460ff16158080156104445750600054600160ff909116105b8061045e5750303b15801561045e575060005460ff166001145b6104ea576040517f08c379a000000000000000000000000000000000000000000000000000000000815260206004820152602e60248201527f496e697469616c697a61626c653a20636f6e747261637420697320616c72656160448201527f647920696e697469616c697a656400000000000000000000000000000000000060648201526084016102f7565b600080547fffffffffffffffffffffffffffffffffffffffffffffffffffffffffffffff00166001179055801561054857600080547fffffffffffffffffffffffffffffffffffffffffffffffffffffffffffff00ff166101001790555b606580547fffffffffffffffffffffffff00000000000000000000000000000000000000001673ffffffffffffffffffffffffffffffffffffffff84161790556105906107a6565b80156105f357600080547fffffffffffffffffffffffffffffffffffffffffffffffffffffffffffff00ff169055604051600181527f7f26b83ff96e1f2b6a682f133852f6798a09c465da95921460cefb38474024989060200160405180910390a15b5050565b6105ff6106ae565b73ffffffffffffffffffffffffffffffffffffffff81166106a2576040517f08c379a000000000000000000000000000000000000000000000000000000000815260206004820152602660248201527f4f776e61626c653a206e6577206f776e657220697320746865207a65726f206160448201527f646472657373000000000000000000000000000000000000000000000000000060648201526084016102f7565b6106ab8161072f565b50565b60335473ffffffffffffffffffffffffffffffffffffffff16331461026c576040517f08c379a000000000000000000000000000000000000000000000000000000000815260206004820181905260248201527f4f776e61626c653a2063616c6c6572206973206e6f7420746865206f776e657260448201526064016102f7565b6033805473ffffffffffffffffffffffffffffffffffffffff8381167fffffffffffffffffffffffff0000000000000000000000000000000000000000831681179093556040519116919082907f8be0079c531659141344cd1fd0a4f28419497f9722a3daafe3b4186f6b6457e090600090a35050565b600054610100900460ff1661083d576040517f08c379a000000000000000000000000000000000000000000000000000000000815260206004820152602b60248201527f496e697469616c697a61626c653a20636f6e7472616374206973206e6f74206960448201527f6e697469616c697a696e6700000000000000000000000000000000000000000060648201526084016102f7565b61026c600054610100900460ff166108d7576040517f08c379a000000000000000000000000000000000000000000000000000000000815260206004820152602b60248201527f496e697469616c697a61626c653a20636f6e7472616374206973206e6f74206960448201527f6e697469616c697a696e6700000000000000000000000000000000000000000060648201526084016102f7565b61026c3361072f565b803573ffffffffffffffffffffffffffffffffffffffff8116811461090457600080fd5b919050565b60008060006060848603121561091e57600080fd5b610927846108e0565b925060208401359150604084013560ff8116811461094457600080fd5b809150509250925092565b60006020828403121561096157600080fd5b61096a826108e0565b9392505050565b60006020828403121561098357600080fd5b5035919050565b60008060006060848603121561099f57600080fd5b8351925060208401519150604084015190509250925092565b7f4e487b7100000000000000000000000000000000000000000000000000000000600052601160045260246000fd5b600060ff821660ff841680821015610a0157610a016109b8565b90039392505050565b600181815b80851115610a6357817fffffffffffffffffffffffffffffffffffffffffffffffffffffffffffffffff04821115610a4957610a496109b8565b80851615610a5657918102915b93841c9390800290610a0f565b509250929050565b600082610a7a57506001610b26565b81610a8757506000610b26565b8160018114610a9d5760028114610aa757610ac3565b6001915050610b26565b60ff841115610ab857610ab86109b8565b50506001821b610b26565b5060208310610133831016604e8410600b8410161715610ae6575081810a610b26565b610af08383610a0a565b807fffffffffffffffffffffffffffffffffffffffffffffffffffffffffffffffff04821115610b2257610b226109b8565b0290505b92915050565b600061096a60ff841683610a6b565b6000817fffffffffffffffffffffffffffffffffffffffffffffffffffffffffffffffff0483118215151615610b7357610b736109b8565b500290565b600082610bae577f4e487b7100000000000000000000000000000000000000000000000000000000600052601260045260246000fd5b50049056fea2646970667358221220a148e9bc76e2fa54b1efa0aa1a5bbc3b484b8833cee30fb522a2c7395057cc7264736f6c63430008090033",
  "devdoc": {
    "kind": "dev",
    "methods": {
      "owner()": {
        "details": "Returns the address of the current owner."
      },
      "renounceOwnership()": {
        "details": "Leaves the contract without owner. It will not be possible to call `onlyOwner` functions anymore. Can only be called by the current owner. NOTE: Renouncing ownership will leave the contract without an owner, thereby removing any functionality that is only available to the owner."
      },
      "transferOwnership(address)": {
        "details": "Transfers ownership of the contract to a new account (`newOwner`). Can only be called by the current owner."
      }
    },
    "version": 1
  },
  "userdoc": {
    "kind": "user",
    "methods": {
      "consultPrice(address)": {
        "notice": "consult token price"
      }
    },
    "notice": "Proxy Oracle Contract for Witnet",
    "version": 1
  },
  "storageLayout": {
    "storage": [
      {
        "astId": 138,
        "contract": "contracts/externalOracle/WitnetExternalOracle.sol:WitnetExternalOracle",
        "label": "_initialized",
        "offset": 0,
        "slot": "0",
        "type": "t_uint8"
      },
      {
        "astId": 141,
        "contract": "contracts/externalOracle/WitnetExternalOracle.sol:WitnetExternalOracle",
        "label": "_initializing",
        "offset": 1,
        "slot": "0",
        "type": "t_bool"
      },
      {
        "astId": 566,
        "contract": "contracts/externalOracle/WitnetExternalOracle.sol:WitnetExternalOracle",
        "label": "__gap",
        "offset": 0,
        "slot": "1",
        "type": "t_array(t_uint256)50_storage"
      },
      {
        "astId": 10,
        "contract": "contracts/externalOracle/WitnetExternalOracle.sol:WitnetExternalOracle",
        "label": "_owner",
        "offset": 0,
        "slot": "51",
        "type": "t_address"
      },
      {
        "astId": 130,
        "contract": "contracts/externalOracle/WitnetExternalOracle.sol:WitnetExternalOracle",
        "label": "__gap",
        "offset": 0,
        "slot": "52",
        "type": "t_array(t_uint256)49_storage"
      },
      {
        "astId": 1269,
        "contract": "contracts/externalOracle/WitnetExternalOracle.sol:WitnetExternalOracle",
        "label": "witnetPriceRouter",
        "offset": 0,
        "slot": "101",
        "type": "t_contract(IWitnetPriceRouter)3150"
      },
      {
        "astId": 1276,
        "contract": "contracts/externalOracle/WitnetExternalOracle.sol:WitnetExternalOracle",
        "label": "values",
        "offset": 0,
        "slot": "102",
        "type": "t_mapping(t_address,t_bytes32)"
      },
      {
        "astId": 1280,
        "contract": "contracts/externalOracle/WitnetExternalOracle.sol:WitnetExternalOracle",
        "label": "decimalsForValue",
        "offset": 0,
        "slot": "103",
        "type": "t_mapping(t_bytes32,t_uint8)"
      }
    ],
    "types": {
      "t_address": {
        "encoding": "inplace",
        "label": "address",
        "numberOfBytes": "20"
      },
      "t_array(t_uint256)49_storage": {
        "base": "t_uint256",
        "encoding": "inplace",
        "label": "uint256[49]",
        "numberOfBytes": "1568"
      },
      "t_array(t_uint256)50_storage": {
        "base": "t_uint256",
        "encoding": "inplace",
        "label": "uint256[50]",
        "numberOfBytes": "1600"
      },
      "t_bool": {
        "encoding": "inplace",
        "label": "bool",
        "numberOfBytes": "1"
      },
      "t_bytes32": {
        "encoding": "inplace",
        "label": "bytes32",
        "numberOfBytes": "32"
      },
      "t_contract(IWitnetPriceRouter)3150": {
        "encoding": "inplace",
        "label": "contract IWitnetPriceRouter",
        "numberOfBytes": "20"
      },
      "t_mapping(t_address,t_bytes32)": {
        "encoding": "mapping",
        "key": "t_address",
        "label": "mapping(address => bytes32)",
        "numberOfBytes": "32",
        "value": "t_bytes32"
      },
      "t_mapping(t_bytes32,t_uint8)": {
        "encoding": "mapping",
        "key": "t_bytes32",
        "label": "mapping(bytes32 => uint8)",
        "numberOfBytes": "32",
        "value": "t_uint8"
      },
      "t_uint256": {
        "encoding": "inplace",
        "label": "uint256",
        "numberOfBytes": "32"
      },
      "t_uint8": {
        "encoding": "inplace",
        "label": "uint8",
        "numberOfBytes": "1"
      }
    }
  }
}