{
  "address": "0x3b36d73DEE5fe0f81e61A4B7f7D76d09F4515bd2",
  "abi": [
    {
      "anonymous": false,
      "inputs": [
        {
          "indexed": false,
          "internalType": "uint8",
          "name": "version",
          "type": "uint8"
        }
      ],
      "name": "Initialized",
      "type": "event"
    },
    {
      "inputs": [],
      "name": "consultKlayPrice",
      "outputs": [
        {
          "internalType": "uint256",
          "name": "price",
          "type": "uint256"
        }
      ],
      "stateMutability": "view",
      "type": "function"
    },
    {
      "inputs": [
        {
          "internalType": "address",
          "name": "_witnetOracle",
          "type": "address"
        }
      ],
      "name": "initialize",
      "outputs": [],
      "stateMutability": "nonpayable",
      "type": "function"
    },
    {
      "inputs": [],
      "name": "witnetPriceRouter",
      "outputs": [
        {
          "internalType": "contract IWitnetPriceRouter",
          "name": "",
          "type": "address"
        }
      ],
      "stateMutability": "view",
      "type": "function"
    }
  ],
  "transactionHash": "0x36928f51ed9145afc69ddae9281543f8cbdc6ca3b8a2649093605caacda819d8",
  "args": [],
  "numDeployments": 1,
  "solcInputHash": "8b9053f8114d9169ef8247b91ac8ffdd",
  "bytecode": "0x608060405234801561001057600080fd5b506104ab806100206000396000f3fe608060405234801561001057600080fd5b50600436106100415760003560e01c80634fc87f2414610046578063b74c9c8d14610096578063c4d66de8146100ac575b600080fd5b60005461006c9062010000900473ffffffffffffffffffffffffffffffffffffffff1681565b60405173ffffffffffffffffffffffffffffffffffffffff90911681526020015b60405180910390f35b61009e6100c1565b60405190815260200161008d565b6100bf6100ba36600461040a565b610192565b005b600080546040517ff78eea830000000000000000000000000000000000000000000000000000000081527f5d9add33a579dcae4103453b8445b350aa99013a7863d73770cd7c135b2c47a06004820152829162010000900473ffffffffffffffffffffffffffffffffffffffff169063f78eea839060240160606040518083038186803b15801561015157600080fd5b505afa158015610165573d6000803e3d6000fd5b505050506040513d601f19601f820116820180604052508101906101899190610447565b50909392505050565b600061019e600161027f565b905080156101d357600080547fffffffffffffffffffffffffffffffffffffffffffffffffffffffffffff00ff166101001790555b600080547fffffffffffffffffffff0000000000000000000000000000000000000000ffff166201000073ffffffffffffffffffffffffffffffffffffffff851602179055801561027b57600080547fffffffffffffffffffffffffffffffffffffffffffffffffffffffffffff00ff169055604051600181527f7f26b83ff96e1f2b6a682f133852f6798a09c465da95921460cefb38474024989060200160405180910390a15b5050565b60008054610100900460ff161561033b578160ff1660011480156102a25750303b155b610333576040517f08c379a000000000000000000000000000000000000000000000000000000000815260206004820152602e60248201527f496e697469616c697a61626c653a20636f6e747261637420697320616c72656160448201527f647920696e697469616c697a656400000000000000000000000000000000000060648201526084015b60405180910390fd5b506000919050565b60005460ff8084169116106103d2576040517f08c379a000000000000000000000000000000000000000000000000000000000815260206004820152602e60248201527f496e697469616c697a61626c653a20636f6e747261637420697320616c72656160448201527f647920696e697469616c697a6564000000000000000000000000000000000000606482015260840161032a565b50600080547fffffffffffffffffffffffffffffffffffffffffffffffffffffffffffffff001660ff92909216919091179055600190565b60006020828403121561041c57600080fd5b813573ffffffffffffffffffffffffffffffffffffffff8116811461044057600080fd5b9392505050565b60008060006060848603121561045c57600080fd5b835192506020840151915060408401519050925092509256fea2646970667358221220a4d09a7159c67b04501f9b5a462c13875e780126948cee81fd746da9d048ed9364736f6c63430008090033",
  "devdoc": {
    "kind": "dev",
    "methods": {},
    "version": 1
  },
  "userdoc": {
    "kind": "user",
    "methods": {},
    "version": 1
  },
  "storageLayout": {
    "storage": [
      {
        "astId": 130,
        "contract": "contracts/external/WitnetOracle.sol:WitnetOracle",
        "label": "_initialized",
        "offset": 0,
        "slot": "0",
        "type": "t_uint8"
      },
      {
        "astId": 133,
        "contract": "contracts/external/WitnetOracle.sol:WitnetOracle",
        "label": "_initializing",
        "offset": 1,
        "slot": "0",
        "type": "t_bool"
      },
      {
        "astId": 1680,
        "contract": "contracts/external/WitnetOracle.sol:WitnetOracle",
        "label": "witnetPriceRouter",
        "offset": 2,
        "slot": "0",
        "type": "t_contract(IWitnetPriceRouter)3048"
      }
    ],
    "types": {
      "t_bool": {
        "encoding": "inplace",
        "label": "bool",
        "numberOfBytes": "1"
      },
      "t_contract(IWitnetPriceRouter)3048": {
        "encoding": "inplace",
        "label": "contract IWitnetPriceRouter",
        "numberOfBytes": "20"
      },
      "t_uint8": {
        "encoding": "inplace",
        "label": "uint8",
        "numberOfBytes": "1"
      }
    }
  }
}