{
  "address": "0x060c80Bf74429A6Cf0F670622Bf3EE7a7540b105",
  "abi": [
    {
      "inputs": [
        {
          "internalType": "address",
          "name": "token",
          "type": "address"
        }
      ],
      "name": "consultPrice",
      "outputs": [
        {
          "internalType": "uint256",
          "name": "price",
          "type": "uint256"
        }
      ],
      "stateMutability": "view",
      "type": "function"
    }
  ],
  "transactionHash": "0xe0f4da7e343d0672982feeb33281a7f9ad939efd51415b2f8296d75f5e28900b",
  "args": [],
  "numDeployments": 1,
  "solcInputHash": "31a4865402af3f705d73582a0d2cc349",
  "bytecode": "0x608060405234801561001057600080fd5b5060c38061001f6000396000f3fe6080604052348015600f57600080fd5b506004361060285760003560e01c80638194fe9e14602d575b600080fd5b604060383660046052565b50620f424090565b60405190815260200160405180910390f35b600060208284031215606357600080fd5b813573ffffffffffffffffffffffffffffffffffffffff81168114608657600080fd5b939250505056fea2646970667358221220ca3457957598b94a1ad4c21ab887e5d77fc52170375683f14d09429a42224df764736f6c63430008090033",
  "devdoc": {
    "kind": "dev",
    "methods": {},
    "version": 1
  },
  "userdoc": {
    "kind": "user",
    "methods": {},
    "version": 1
  },
  "storageLayout": {
    "storage": [],
    "types": null
  }
}