{
  "address": "0x2F6b023584d4ad3441104deEEE235293297d4aE4",
  "abi": [
    {
      "anonymous": false,
      "inputs": [
        {
          "indexed": false,
          "internalType": "uint8",
          "name": "version",
          "type": "uint8"
        }
      ],
      "name": "Initialized",
      "type": "event"
    },
    {
      "inputs": [],
      "name": "WKLAY",
      "outputs": [
        {
          "internalType": "address",
          "name": "",
          "type": "address"
        }
      ],
      "stateMutability": "pure",
      "type": "function"
    },
    {
      "inputs": [],
      "name": "factory",
      "outputs": [
        {
          "internalType": "contract IKlayswapFactory",
          "name": "",
          "type": "address"
        }
      ],
      "stateMutability": "view",
      "type": "function"
    },
    {
      "inputs": [
        {
          "internalType": "address",
          "name": "token",
          "type": "address"
        }
      ],
      "name": "getKlayReserve",
      "outputs": [
        {
          "internalType": "uint256",
          "name": "klayReserve",
          "type": "uint256"
        },
        {
          "internalType": "uint256",
          "name": "tokenReserve",
          "type": "uint256"
        }
      ],
      "stateMutability": "view",
      "type": "function"
    },
    {
      "inputs": [
        {
          "internalType": "address",
          "name": "token0",
          "type": "address"
        },
        {
          "internalType": "address",
          "name": "token1",
          "type": "address"
        }
      ],
      "name": "getReserve",
      "outputs": [
        {
          "internalType": "uint256",
          "name": "reserve0",
          "type": "uint256"
        },
        {
          "internalType": "uint256",
          "name": "reserve1",
          "type": "uint256"
        }
      ],
      "stateMutability": "view",
      "type": "function"
    },
    {
      "inputs": [
        {
          "internalType": "address",
          "name": "_factory",
          "type": "address"
        }
      ],
      "name": "initialize",
      "outputs": [],
      "stateMutability": "nonpayable",
      "type": "function"
    }
  ],
  "transactionHash": "0xb86cbf02c5b71f8c115198f5426fc0161422f80f69d6bc5903d5201d48ed6eb9",
  "args": [],
  "numDeployments": 1,
  "solcInputHash": "b7a14c96ef89b6b16655e8b33c6d5d75",
  "bytecode": "0x608060405234801561001057600080fd5b506106dd806100206000396000f3fe608060405234801561001057600080fd5b50600436106100675760003560e01c8063c45a015511610050578063c45a0155146100c1578063c4d66de8146100e7578063cbc3ab53146100fc57600080fd5b8063249502d71461006c5780636a58881914610099575b600080fd5b60005b60405173ffffffffffffffffffffffffffffffffffffffff90911681526020015b60405180910390f35b6100ac6100a7366004610609565b61010f565b60408051928352602083019190915201610090565b60005461006f9062010000900473ffffffffffffffffffffffffffffffffffffffff1681565b6100fa6100f5366004610609565b610126565b005b6100ac61010a36600461062d565b610213565b60008061011d60008461022c565b91509150915091565b60006101326001610459565b9050801561016757600080547fffffffffffffffffffffffffffffffffffffffffffffffffffffffffffff00ff166101001790555b600080547fffffffffffffffffffff0000000000000000000000000000000000000000ffff166201000073ffffffffffffffffffffffffffffffffffffffff851602179055801561020f57600080547fffffffffffffffffffffffffffffffffffffffffffffffffffffffffffff00ff169055604051600181527f7f26b83ff96e1f2b6a682f133852f6798a09c465da95921460cefb38474024989060200160405180910390a15b5050565b600080610220848461022c565b915091505b9250929050565b600080546040517ffd435cb900000000000000000000000000000000000000000000000000000000815273ffffffffffffffffffffffffffffffffffffffff8581166004830152848116602483015283928392620100009091049091169063fd435cb99060440160206040518083038186803b1580156102ab57600080fd5b505afa1580156102bf573d6000803e3d6000fd5b505050506040513d601f19601f820116820180604052508101906102e39190610666565b905073ffffffffffffffffffffffffffffffffffffffff811661030d576000809250925050610225565b6000808273ffffffffffffffffffffffffffffffffffffffff16631a595f656040518163ffffffff1660e01b8152600401604080518083038186803b15801561035557600080fd5b505afa158015610369573d6000803e3d6000fd5b505050506040513d601f19601f8201168201806040525081019061038d9190610683565b915091508673ffffffffffffffffffffffffffffffffffffffff168373ffffffffffffffffffffffffffffffffffffffff16630fc63d106040518163ffffffff1660e01b815260040160206040518083038186803b1580156103ee57600080fd5b505afa158015610402573d6000803e3d6000fd5b505050506040513d601f19601f820116820180604052508101906104269190610666565b73ffffffffffffffffffffffffffffffffffffffff16141561044e5790935091506102259050565b935091506102259050565b60008054610100900460ff1615610515578160ff16600114801561047c5750303b155b61050d576040517f08c379a000000000000000000000000000000000000000000000000000000000815260206004820152602e60248201527f496e697469616c697a61626c653a20636f6e747261637420697320616c72656160448201527f647920696e697469616c697a656400000000000000000000000000000000000060648201526084015b60405180910390fd5b506000919050565b60005460ff8084169116106105ac576040517f08c379a000000000000000000000000000000000000000000000000000000000815260206004820152602e60248201527f496e697469616c697a61626c653a20636f6e747261637420697320616c72656160448201527f647920696e697469616c697a65640000000000000000000000000000000000006064820152608401610504565b50600080547fffffffffffffffffffffffffffffffffffffffffffffffffffffffffffffff001660ff92909216919091179055600190565b73ffffffffffffffffffffffffffffffffffffffff8116811461060657600080fd5b50565b60006020828403121561061b57600080fd5b8135610626816105e4565b9392505050565b6000806040838503121561064057600080fd5b823561064b816105e4565b9150602083013561065b816105e4565b809150509250929050565b60006020828403121561067857600080fd5b8151610626816105e4565b6000806040838503121561069657600080fd5b50508051602090910151909290915056fea2646970667358221220cd63249c3acecea4430f92cfe426553c9cff49a1bb096099bba7056b6cf108e464736f6c63430008090033",
  "devdoc": {
    "kind": "dev",
    "methods": {},
    "version": 1
  },
  "userdoc": {
    "kind": "user",
    "methods": {},
    "version": 1
  },
  "storageLayout": {
    "storage": [
      {
        "astId": 130,
        "contract": "contracts/dex/KlayswapReserve.sol:KlayswapReserve",
        "label": "_initialized",
        "offset": 0,
        "slot": "0",
        "type": "t_uint8"
      },
      {
        "astId": 133,
        "contract": "contracts/dex/KlayswapReserve.sol:KlayswapReserve",
        "label": "_initializing",
        "offset": 1,
        "slot": "0",
        "type": "t_bool"
      },
      {
        "astId": 1229,
        "contract": "contracts/dex/KlayswapReserve.sol:KlayswapReserve",
        "label": "factory",
        "offset": 2,
        "slot": "0",
        "type": "t_contract(IKlayswapFactory)2119"
      }
    ],
    "types": {
      "t_bool": {
        "encoding": "inplace",
        "label": "bool",
        "numberOfBytes": "1"
      },
      "t_contract(IKlayswapFactory)2119": {
        "encoding": "inplace",
        "label": "contract IKlayswapFactory",
        "numberOfBytes": "20"
      },
      "t_uint8": {
        "encoding": "inplace",
        "label": "uint8",
        "numberOfBytes": "1"
      }
    }
  }
}