{
  "address": "0x7dcD28cFc270A8224B22dca3B608cF2C203E4d5e",
  "abi": [
    {
      "anonymous": false,
      "inputs": [
        {
          "indexed": false,
          "internalType": "uint8",
          "name": "version",
          "type": "uint8"
        }
      ],
      "name": "Initialized",
      "type": "event"
    },
    {
      "inputs": [],
      "name": "WKLAY",
      "outputs": [
        {
          "internalType": "address",
          "name": "",
          "type": "address"
        }
      ],
      "stateMutability": "view",
      "type": "function"
    },
    {
      "inputs": [],
      "name": "factory",
      "outputs": [
        {
          "internalType": "contract IConcentratedLiquidityPoolFactory",
          "name": "",
          "type": "address"
        }
      ],
      "stateMutability": "view",
      "type": "function"
    },
    {
      "inputs": [
        {
          "internalType": "address",
          "name": "token",
          "type": "address"
        }
      ],
      "name": "getKlayReserve",
      "outputs": [
        {
          "internalType": "uint256",
          "name": "klayReserve",
          "type": "uint256"
        },
        {
          "internalType": "uint256",
          "name": "tokenReserve",
          "type": "uint256"
        }
      ],
      "stateMutability": "view",
      "type": "function"
    },
    {
      "inputs": [
        {
          "internalType": "address",
          "name": "token0",
          "type": "address"
        },
        {
          "internalType": "address",
          "name": "token1",
          "type": "address"
        }
      ],
      "name": "getReserve",
      "outputs": [
        {
          "internalType": "uint256",
          "name": "reserve0",
          "type": "uint256"
        },
        {
          "internalType": "uint256",
          "name": "reserve1",
          "type": "uint256"
        }
      ],
      "stateMutability": "view",
      "type": "function"
    },
    {
      "inputs": [
        {
          "internalType": "address",
          "name": "_factory",
          "type": "address"
        },
        {
          "internalType": "address",
          "name": "_wklay",
          "type": "address"
        }
      ],
      "name": "initialize",
      "outputs": [],
      "stateMutability": "nonpayable",
      "type": "function"
    }
  ],
  "transactionHash": "0x471bab349a0392080dbb0f9605107d19689a01a7381ffa5e05a86b1bf5d6207f",
  "args": [],
  "numDeployments": 1,
  "solcInputHash": "b127040a941fe8bca5287c98a68c9779",
  "bytecode": "0x608060405234801561001057600080fd5b50610c2f806100206000396000f3fe608060405234801561001057600080fd5b50600436106100675760003560e01c80636a588819116100505780636a588819146100c5578063c45a0155146100ed578063cbc3ab531461011357600080fd5b8063249502d71461006c578063485cc955146100b0575b600080fd5b60015473ffffffffffffffffffffffffffffffffffffffff165b60405173ffffffffffffffffffffffffffffffffffffffff90911681526020015b60405180910390f35b6100c36100be36600461096f565b610126565b005b6100d86100d33660046109a8565b61024b565b604080519283526020830191909152016100a7565b6000546100869062010000900473ffffffffffffffffffffffffffffffffffffffff1681565b6100d861012136600461096f565b61027c565b60006101326001610294565b9050801561016757600080547fffffffffffffffffffffffffffffffffffffffffffffffffffffffffffff00ff166101001790555b600080547fffffffffffffffffffff0000000000000000000000000000000000000000ffff166201000073ffffffffffffffffffffffffffffffffffffffff8681169190910291909117909155600180547fffffffffffffffffffffffff000000000000000000000000000000000000000016918416919091179055801561024657600080547fffffffffffffffffffffffffffffffffffffffffffffffffffffffffffff00ff169055604051600181527f7f26b83ff96e1f2b6a682f133852f6798a09c465da95921460cefb38474024989060200160405180910390a15b505050565b60015460009081906102739073ffffffffffffffffffffffffffffffffffffffff1684610424565b91509150915091565b6000806102898484610424565b915091509250929050565b60008054610100900460ff1615610350578160ff1660011480156102b75750303b155b610348576040517f08c379a000000000000000000000000000000000000000000000000000000000815260206004820152602e60248201527f496e697469616c697a61626c653a20636f6e747261637420697320616c72656160448201527f647920696e697469616c697a656400000000000000000000000000000000000060648201526084015b60405180910390fd5b506000919050565b60005460ff8084169116106103e7576040517f08c379a000000000000000000000000000000000000000000000000000000000815260206004820152602e60248201527f496e697469616c697a61626c653a20636f6e747261637420697320616c72656160448201527f647920696e697469616c697a6564000000000000000000000000000000000000606482015260840161033f565b50600080547fffffffffffffffffffffffffffffffffffffffffffffffffffffffffffffff001660ff92909216919091179055600190565b919050565b600080546040517f5bc93d6c00000000000000000000000000000000000000000000000000000000815273ffffffffffffffffffffffffffffffffffffffff858116600483015284811660248301528392839262010000909104909116906371a25812908790879085908590635bc93d6c9060440160206040518083038186803b1580156104b157600080fd5b505afa1580156104c5573d6000803e3d6000fd5b505050506040513d601f19601f820116820180604052508101906104e991906109c5565b6040517fffffffff0000000000000000000000000000000000000000000000000000000060e087901b16815273ffffffffffffffffffffffffffffffffffffffff94851660048201529390921660248401526044830152606482015260840160006040518083038186803b15801561056057600080fd5b505afa158015610574573d6000803e3d6000fd5b505050506040513d6000823e601f3d9081017fffffffffffffffffffffffffffffffffffffffffffffffffffffffffffffffe01682016040526105ba9190810190610a18565b905060005b815181101561086f5760008282815181106105dc576105dc610afb565b6020026020010151905060008173ffffffffffffffffffffffffffffffffffffffff1663a035b1fe6040518163ffffffff1660e01b815260040160206040518083038186803b15801561062e57600080fd5b505afa158015610642573d6000803e3d6000fd5b505050506040513d601f19601f820116820180604052508101906106669190610b2a565b73ffffffffffffffffffffffffffffffffffffffff16905060008273ffffffffffffffffffffffffffffffffffffffff16631a6865026040518163ffffffff1660e01b815260040160206040518083038186803b1580156106c657600080fd5b505afa1580156106da573d6000803e3d6000fd5b505050506040513d601f19601f820116820180604052508101906106fe9190610b47565b6fffffffffffffffffffffffffffffffff1690508873ffffffffffffffffffffffffffffffffffffffff168373ffffffffffffffffffffffffffffffffffffffff16630dfe16816040518163ffffffff1660e01b815260040160206040518083038186803b15801561076f57600080fd5b505afa158015610783573d6000803e3d6000fd5b505050506040513d601f19601f820116820180604052508101906107a79190610b2a565b73ffffffffffffffffffffffffffffffffffffffff161415610810576107db816c0100000000000000000000000084610878565b6107e59088610ba8565b96506107ff81836c01000000000000000000000000610878565b6108099087610ba8565b9550610859565b61082881836c01000000000000000000000000610878565b6108329088610ba8565b965061084c816c0100000000000000000000000084610878565b6108569087610ba8565b95505b505050808061086790610bc0565b9150506105bf565b50509250929050565b600080807fffffffffffffffffffffffffffffffffffffffffffffffffffffffffffffffff85870985870292508281108382030391505080600014156108d057600084116108c557600080fd5b508290049050610943565b8084116108dc57600080fd5b6000848688096000868103871696879004966002600389028118808a02820302808a02820302808a02820302808a02820302808a02820302808a02909103029181900381900460010186841190950394909402919094039290920491909117919091029150505b9392505050565b73ffffffffffffffffffffffffffffffffffffffff8116811461096c57600080fd5b50565b6000806040838503121561098257600080fd5b823561098d8161094a565b9150602083013561099d8161094a565b809150509250929050565b6000602082840312156109ba57600080fd5b81356109438161094a565b6000602082840312156109d757600080fd5b5051919050565b7f4e487b7100000000000000000000000000000000000000000000000000000000600052604160045260246000fd5b805161041f8161094a565b60006020808385031215610a2b57600080fd5b825167ffffffffffffffff80821115610a4357600080fd5b818501915085601f830112610a5757600080fd5b815181811115610a6957610a696109de565b8060051b6040517fffffffffffffffffffffffffffffffffffffffffffffffffffffffffffffffe0603f83011681018181108582111715610aac57610aac6109de565b604052918252848201925083810185019188831115610aca57600080fd5b938501935b82851015610aef57610ae085610a0d565b84529385019392850192610acf565b98975050505050505050565b7f4e487b7100000000000000000000000000000000000000000000000000000000600052603260045260246000fd5b600060208284031215610b3c57600080fd5b81516109438161094a565b600060208284031215610b5957600080fd5b81516fffffffffffffffffffffffffffffffff8116811461094357600080fd5b7f4e487b7100000000000000000000000000000000000000000000000000000000600052601160045260246000fd5b60008219821115610bbb57610bbb610b79565b500190565b60007fffffffffffffffffffffffffffffffffffffffffffffffffffffffffffffffff821415610bf257610bf2610b79565b506001019056fea2646970667358221220e8d9309760d81f7d199513a205bd7b080c439f89416029ca0f4f26020e6b7e8364736f6c63430008090033",
  "devdoc": {
    "kind": "dev",
    "methods": {},
    "version": 1
  },
  "userdoc": {
    "kind": "user",
    "methods": {},
    "version": 1
  },
  "storageLayout": {
    "storage": [
      {
        "astId": 130,
        "contract": "contracts/dex/PangeaReserve.sol:PangeaReserve",
        "label": "_initialized",
        "offset": 0,
        "slot": "0",
        "type": "t_uint8"
      },
      {
        "astId": 133,
        "contract": "contracts/dex/PangeaReserve.sol:PangeaReserve",
        "label": "_initializing",
        "offset": 1,
        "slot": "0",
        "type": "t_bool"
      },
      {
        "astId": 1421,
        "contract": "contracts/dex/PangeaReserve.sol:PangeaReserve",
        "label": "factory",
        "offset": 2,
        "slot": "0",
        "type": "t_contract(IConcentratedLiquidityPoolFactory)2523"
      },
      {
        "astId": 1423,
        "contract": "contracts/dex/PangeaReserve.sol:PangeaReserve",
        "label": "wklay",
        "offset": 0,
        "slot": "1",
        "type": "t_address"
      }
    ],
    "types": {
      "t_address": {
        "encoding": "inplace",
        "label": "address",
        "numberOfBytes": "20"
      },
      "t_bool": {
        "encoding": "inplace",
        "label": "bool",
        "numberOfBytes": "1"
      },
      "t_contract(IConcentratedLiquidityPoolFactory)2523": {
        "encoding": "inplace",
        "label": "contract IConcentratedLiquidityPoolFactory",
        "numberOfBytes": "20"
      },
      "t_uint8": {
        "encoding": "inplace",
        "label": "uint8",
        "numberOfBytes": "1"
      }
    }
  }
}