{
  "address": "0x71B8c9173F8d558777311F1C0b36601109a2eA14",
  "abi": [
    {
      "anonymous": false,
      "inputs": [
        {
          "indexed": false,
          "internalType": "uint8",
          "name": "version",
          "type": "uint8"
        }
      ],
      "name": "Initialized",
      "type": "event"
    },
    {
      "anonymous": false,
      "inputs": [
        {
          "indexed": true,
          "internalType": "address",
          "name": "previousOwner",
          "type": "address"
        },
        {
          "indexed": true,
          "internalType": "address",
          "name": "newOwner",
          "type": "address"
        }
      ],
      "name": "OwnershipTransferred",
      "type": "event"
    },
    {
      "inputs": [],
      "name": "DECIMAL",
      "outputs": [
        {
          "internalType": "uint256",
          "name": "",
          "type": "uint256"
        }
      ],
      "stateMutability": "view",
      "type": "function"
    },
    {
      "inputs": [],
      "name": "consultKlayPrice",
      "outputs": [
        {
          "internalType": "uint256",
          "name": "price",
          "type": "uint256"
        }
      ],
      "stateMutability": "view",
      "type": "function"
    },
    {
      "inputs": [
        {
          "internalType": "address",
          "name": "token",
          "type": "address"
        }
      ],
      "name": "consultPrice",
      "outputs": [
        {
          "internalType": "uint256",
          "name": "price",
          "type": "uint256"
        }
      ],
      "stateMutability": "view",
      "type": "function"
    },
    {
      "inputs": [
        {
          "internalType": "address",
          "name": "token",
          "type": "address"
        },
        {
          "internalType": "address",
          "name": "referenceToken",
          "type": "address"
        }
      ],
      "name": "consultPriceFrom",
      "outputs": [
        {
          "internalType": "uint256",
          "name": "price",
          "type": "uint256"
        }
      ],
      "stateMutability": "view",
      "type": "function"
    },
    {
      "inputs": [],
      "name": "initialize",
      "outputs": [],
      "stateMutability": "nonpayable",
      "type": "function"
    },
    {
      "inputs": [
        {
          "internalType": "address",
          "name": "",
          "type": "address"
        }
      ],
      "name": "isPairReserve",
      "outputs": [
        {
          "internalType": "bool",
          "name": "",
          "type": "bool"
        }
      ],
      "stateMutability": "view",
      "type": "function"
    },
    {
      "inputs": [
        {
          "internalType": "address",
          "name": "",
          "type": "address"
        }
      ],
      "name": "isStableCoin",
      "outputs": [
        {
          "internalType": "bool",
          "name": "",
          "type": "bool"
        }
      ],
      "stateMutability": "view",
      "type": "function"
    },
    {
      "inputs": [
        {
          "internalType": "address",
          "name": "",
          "type": "address"
        }
      ],
      "name": "isWklay",
      "outputs": [
        {
          "internalType": "bool",
          "name": "",
          "type": "bool"
        }
      ],
      "stateMutability": "view",
      "type": "function"
    },
    {
      "inputs": [],
      "name": "klayOracle",
      "outputs": [
        {
          "internalType": "address",
          "name": "",
          "type": "address"
        }
      ],
      "stateMutability": "view",
      "type": "function"
    },
    {
      "inputs": [],
      "name": "owner",
      "outputs": [
        {
          "internalType": "address",
          "name": "",
          "type": "address"
        }
      ],
      "stateMutability": "view",
      "type": "function"
    },
    {
      "inputs": [
        {
          "internalType": "uint256",
          "name": "",
          "type": "uint256"
        }
      ],
      "name": "pairReserves",
      "outputs": [
        {
          "internalType": "address",
          "name": "",
          "type": "address"
        }
      ],
      "stateMutability": "view",
      "type": "function"
    },
    {
      "inputs": [
        {
          "internalType": "address",
          "name": "_klayOracle",
          "type": "address"
        }
      ],
      "name": "registerKlayOracle",
      "outputs": [],
      "stateMutability": "nonpayable",
      "type": "function"
    },
    {
      "inputs": [
        {
          "internalType": "address",
          "name": "_pairReserve",
          "type": "address"
        }
      ],
      "name": "registerPairReserve",
      "outputs": [],
      "stateMutability": "nonpayable",
      "type": "function"
    },
    {
      "inputs": [
        {
          "internalType": "address",
          "name": "_stableCoin",
          "type": "address"
        }
      ],
      "name": "registerStableCoin",
      "outputs": [],
      "stateMutability": "nonpayable",
      "type": "function"
    },
    {
      "inputs": [],
      "name": "renounceOwnership",
      "outputs": [],
      "stateMutability": "nonpayable",
      "type": "function"
    },
    {
      "inputs": [
        {
          "internalType": "uint256",
          "name": "",
          "type": "uint256"
        }
      ],
      "name": "stableCoins",
      "outputs": [
        {
          "internalType": "address",
          "name": "",
          "type": "address"
        }
      ],
      "stateMutability": "view",
      "type": "function"
    },
    {
      "inputs": [
        {
          "internalType": "address",
          "name": "newOwner",
          "type": "address"
        }
      ],
      "name": "transferOwnership",
      "outputs": [],
      "stateMutability": "nonpayable",
      "type": "function"
    },
    {
      "inputs": [
        {
          "internalType": "uint256",
          "name": "",
          "type": "uint256"
        }
      ],
      "name": "wklays",
      "outputs": [
        {
          "internalType": "address",
          "name": "",
          "type": "address"
        }
      ],
      "stateMutability": "view",
      "type": "function"
    }
  ],
  "transactionHash": "0xafb46eac96329cbcff12881afb336e829bcd387f7f05c50088a01b284f0a9876",
  "args": [],
  "numDeployments": 5,
  "solcInputHash": "b7a14c96ef89b6b16655e8b33c6d5d75",
  "bytecode": "0x608060405234801561001057600080fd5b506119d7806100206000396000f3fe608060405234801561001057600080fd5b50600436106101365760003560e01c80638129fc1c116100b2578063a01df62911610081578063db248cb911610066578063db248cb9146102be578063f2fde38b146102d1578063fcf4a4f8146102e457600080fd5b8063a01df62914610296578063b74c9c8d146102b657600080fd5b80638129fc1c1461023a5780638194fe9e146102425780638da5cb5b146102555780639f8507291461027357600080fd5b806355a0c97111610109578063715018a6116100ee578063715018a6146101fc57806377a98d18146102045780637d6d1ce21461022757600080fd5b806355a0c971146101b35780636ab55fd9146101e657600080fd5b8063032b1e941461013b57806320c6aeb7146101505780632af940cf1461016357806348455cfe146101a0575b600080fd5b61014e61014936600461165c565b6102f7565b005b61014e61015e36600461165c565b610618565b610176610171366004611679565b6106e0565b60405173ffffffffffffffffffffffffffffffffffffffff90911681526020015b60405180910390f35b6101766101ae366004611679565b610717565b6101d66101c136600461165c565b60676020526000908152604090205460ff1681565b6040519015158152602001610197565b6101ee600681565b604051908152602001610197565b61014e610727565b6101d661021236600461165c565b60656020526000908152604090205460ff1681565b61014e61023536600461165c565b6107b4565b61014e61096e565b6101ee61025036600461165c565b610a1d565b60335473ffffffffffffffffffffffffffffffffffffffff16610176565b6101d661028136600461165c565b60696020526000908152604090205460ff1681565b606b546101769073ffffffffffffffffffffffffffffffffffffffff1681565b6101ee610b1b565b6101766102cc366004611679565b610b2a565b61014e6102df36600461165c565b610b3a565b6101ee6102f2366004611692565b610c67565b60335473ffffffffffffffffffffffffffffffffffffffff16331461037d576040517f08c379a000000000000000000000000000000000000000000000000000000000815260206004820181905260248201527f4f776e61626c653a2063616c6c6572206973206e6f7420746865206f776e657260448201526064015b60405180910390fd5b73ffffffffffffffffffffffffffffffffffffffff811660009081526065602052604090205460ff161561040d576040517f08c379a000000000000000000000000000000000000000000000000000000000815260206004820152601260248201527f414c5245414459205245474953544552454400000000000000000000000000006044820152606401610374565b73ffffffffffffffffffffffffffffffffffffffff8116600081815260656020908152604080832080547fffffffffffffffffffffffffffffffffffffffffffffffffffffffffffffff0016600190811790915560668054918201815584527f46501879b8ca8525e8c2fd519e2fbfcfa2ebea26501294aa02cbfcfb12e943540180547fffffffffffffffffffffffff0000000000000000000000000000000000000000168517905580517f249502d7000000000000000000000000000000000000000000000000000000008152905192939263249502d792600480840193919291829003018186803b15801561050357600080fd5b505afa158015610517573d6000803e3d6000fd5b505050506040513d601f19601f8201168201806040525081019061053b91906116cb565b73ffffffffffffffffffffffffffffffffffffffff811660009081526069602052604090205490915060ff166106145773ffffffffffffffffffffffffffffffffffffffff8116600081815260696020526040812080547fffffffffffffffffffffffffffffffffffffffffffffffffffffffffffffff00166001908117909155606a805491820181559091527f116fea137db6e131133e7f2bab296045d8f41cc5607279db17b218cab0929a510180547fffffffffffffffffffffffff00000000000000000000000000000000000000001690911790555b5050565b60335473ffffffffffffffffffffffffffffffffffffffff163314610699576040517f08c379a000000000000000000000000000000000000000000000000000000000815260206004820181905260248201527f4f776e61626c653a2063616c6c6572206973206e6f7420746865206f776e65726044820152606401610374565b606b80547fffffffffffffffffffffffff00000000000000000000000000000000000000001673ffffffffffffffffffffffffffffffffffffffff92909216919091179055565b606a81815481106106f057600080fd5b60009182526020909120015473ffffffffffffffffffffffffffffffffffffffff16905081565b606881815481106106f057600080fd5b60335473ffffffffffffffffffffffffffffffffffffffff1633146107a8576040517f08c379a000000000000000000000000000000000000000000000000000000000815260206004820181905260248201527f4f776e61626c653a2063616c6c6572206973206e6f7420746865206f776e65726044820152606401610374565b6107b26000610c73565b565b60335473ffffffffffffffffffffffffffffffffffffffff163314610835576040517f08c379a000000000000000000000000000000000000000000000000000000000815260206004820181905260248201527f4f776e61626c653a2063616c6c6572206973206e6f7420746865206f776e65726044820152606401610374565b73ffffffffffffffffffffffffffffffffffffffff811660009081526067602052604090205460ff16156108c5576040517f08c379a000000000000000000000000000000000000000000000000000000000815260206004820152601260248201527f414c5245414459205245474953544552454400000000000000000000000000006044820152606401610374565b73ffffffffffffffffffffffffffffffffffffffff16600081815260676020526040812080547fffffffffffffffffffffffffffffffffffffffffffffffffffffffffffffff001660019081179091556068805491820181559091527fa2153420d844928b4421650203c77babc8b33d7f2e7b450e2966db0c220977530180547fffffffffffffffffffffffff0000000000000000000000000000000000000000169091179055565b600061097a6001610cea565b905080156109af57600080547fffffffffffffffffffffffffffffffffffffffffffffffffffffffffffff00ff166101001790555b6109b7610e70565b8015610a1a57600080547fffffffffffffffffffffffffffffffffffffffffffffffffffffffffffff00ff169055604051600181527f7f26b83ff96e1f2b6a682f133852f6798a09c465da95921460cefb38474024989060200160405180910390a15b50565b6000805b606854811015610aa2578273ffffffffffffffffffffffffffffffffffffffff1660688281548110610a5557610a556116e8565b60009182526020909120015473ffffffffffffffffffffffffffffffffffffffff161415610a9057610a896006600a61185e565b9392505050565b80610a9a8161186a565b915050610a21565b5060005b606a54811015610b0957606a8181548110610ac357610ac36116e8565b60009182526020909120015473ffffffffffffffffffffffffffffffffffffffff84811691161415610af757610a89610f0f565b80610b018161186a565b915050610aa6565b50610b15826000610fb2565b92915050565b6000610b25610f0f565b905090565b606681815481106106f057600080fd5b60335473ffffffffffffffffffffffffffffffffffffffff163314610bbb576040517f08c379a000000000000000000000000000000000000000000000000000000000815260206004820181905260248201527f4f776e61626c653a2063616c6c6572206973206e6f7420746865206f776e65726044820152606401610374565b73ffffffffffffffffffffffffffffffffffffffff8116610c5e576040517f08c379a000000000000000000000000000000000000000000000000000000000815260206004820152602660248201527f4f776e61626c653a206e6577206f776e657220697320746865207a65726f206160448201527f64647265737300000000000000000000000000000000000000000000000000006064820152608401610374565b610a1a81610c73565b6000610a898383610fb2565b6033805473ffffffffffffffffffffffffffffffffffffffff8381167fffffffffffffffffffffffff0000000000000000000000000000000000000000831681179093556040519116919082907f8be0079c531659141344cd1fd0a4f28419497f9722a3daafe3b4186f6b6457e090600090a35050565b60008054610100900460ff1615610da1578160ff166001148015610d0d5750303b155b610d99576040517f08c379a000000000000000000000000000000000000000000000000000000000815260206004820152602e60248201527f496e697469616c697a61626c653a20636f6e747261637420697320616c72656160448201527f647920696e697469616c697a65640000000000000000000000000000000000006064820152608401610374565b506000919050565b60005460ff808416911610610e38576040517f08c379a000000000000000000000000000000000000000000000000000000000815260206004820152602e60248201527f496e697469616c697a61626c653a20636f6e747261637420697320616c72656160448201527f647920696e697469616c697a65640000000000000000000000000000000000006064820152608401610374565b50600080547fffffffffffffffffffffffffffffffffffffffffffffffffffffffffffffff001660ff92909216919091179055600190565b600054610100900460ff16610f07576040517f08c379a000000000000000000000000000000000000000000000000000000000815260206004820152602b60248201527f496e697469616c697a61626c653a20636f6e7472616374206973206e6f74206960448201527f6e697469616c697a696e670000000000000000000000000000000000000000006064820152608401610374565b6107b2611176565b606b54604080517fb74c9c8d000000000000000000000000000000000000000000000000000000008152905160009273ffffffffffffffffffffffffffffffffffffffff169163b74c9c8d916004808301926020929190829003018186803b158015610f7a57600080fd5b505afa158015610f8e573d6000803e3d6000fd5b505050506040513d601f19601f82011682018060405250810190610b2591906118a3565b6000806000610fc085611216565b909250905073ffffffffffffffffffffffffffffffffffffffff841661102c57600080610fec876112ab565b9150915061100d82610ffc610f0f565b6110086006600a61185e565b6113b2565b61101790856118bc565b935061102381846118bc565b92505050611067565b6000806110398688611483565b9150915061104c82610ffc886000610fb2565b61105690856118bc565b935061106281846118bc565b925050505b811580611072575080155b1561108257600092505050610b15565b60008573ffffffffffffffffffffffffffffffffffffffff1663313ce5676040518163ffffffff1660e01b815260040160206040518083038186803b1580156110ca57600080fd5b505afa1580156110de573d6000803e3d6000fd5b505050506040513d601f19601f8201168201806040525081019061110291906118d4565b60ff169050601281101561114a57611140836111206006600a61185e565b61112b8460126118f7565b61113690600a61185e565b611008908661190e565b9350505050610b15565b61114083601261115b8460066118bc565b61116591906118f7565b61117090600a61185e565b846113b2565b600054610100900460ff1661120d576040517f08c379a000000000000000000000000000000000000000000000000000000000815260206004820152602b60248201527f496e697469616c697a61626c653a20636f6e7472616374206973206e6f74206960448201527f6e697469616c697a696e670000000000000000000000000000000000000000006064820152608401610374565b6107b233610c73565b60008060005b6068548110156112a55760006068828154811061123b5761123b6116e8565b600091825260208220015473ffffffffffffffffffffffffffffffffffffffff169150806112698388611483565b91509150611277838361159a565b61128190876118bc565b955061128d81866118bc565b9450505050808061129d9061186a565b91505061121c565b50915091565b60008060005b6066548110156112a5576000606682815481106112d0576112d06116e8565b60009182526020822001546040517f6a58881900000000000000000000000000000000000000000000000000000000815273ffffffffffffffffffffffffffffffffffffffff8881166004830152909116925081908390636a58881990602401604080518083038186803b15801561134757600080fd5b505afa15801561135b573d6000803e3d6000fd5b505050506040513d601f19601f8201168201806040525081019061137f919061194b565b909250905061138e82876118bc565b955061139a81866118bc565b945050505080806113aa9061186a565b9150506112b1565b600080807fffffffffffffffffffffffffffffffffffffffffffffffffffffffffffffffff858709858702925082811083820303915050806000141561140a57600084116113ff57600080fd5b508290049050610a89565b80841161141657600080fd5b6000848688096000868103871696879004966002600389028118808a02820302808a02820302808a02820302808a02820302808a02820302808a02909103029181900381900460010186841190950394909402919094039290920491909117919091029150509392505050565b60008060005b606654811015611592576000606682815481106114a8576114a86116e8565b60009182526020822001546040517fcbc3ab5300000000000000000000000000000000000000000000000000000000815273ffffffffffffffffffffffffffffffffffffffff8981166004830152888116602483015290911692508190839063cbc3ab5390604401604080518083038186803b15801561152757600080fd5b505afa15801561153b573d6000803e3d6000fd5b505050506040513d601f19601f8201168201806040525081019061155f919061194b565b909250905061156e82876118bc565b955061157a81866118bc565b9450505050808061158a9061186a565b915050611489565b509250929050565b60008273ffffffffffffffffffffffffffffffffffffffff1663313ce5676040518163ffffffff1660e01b815260040160206040518083038186803b1580156115e257600080fd5b505afa1580156115f6573d6000803e3d6000fd5b505050506040513d601f19601f8201168201806040525081019061161a91906118d4565b61162590601261196f565b61163090600a611992565b610a89908361190e565b73ffffffffffffffffffffffffffffffffffffffff81168114610a1a57600080fd5b60006020828403121561166e57600080fd5b8135610a898161163a565b60006020828403121561168b57600080fd5b5035919050565b600080604083850312156116a557600080fd5b82356116b08161163a565b915060208301356116c08161163a565b809150509250929050565b6000602082840312156116dd57600080fd5b8151610a898161163a565b7f4e487b7100000000000000000000000000000000000000000000000000000000600052603260045260246000fd5b7f4e487b7100000000000000000000000000000000000000000000000000000000600052601160045260246000fd5b600181815b8085111561159257817fffffffffffffffffffffffffffffffffffffffffffffffffffffffffffffffff0482111561178557611785611717565b8085161561179257918102915b93841c939080029061174b565b6000826117ae57506001610b15565b816117bb57506000610b15565b81600181146117d157600281146117db576117f7565b6001915050610b15565b60ff8411156117ec576117ec611717565b50506001821b610b15565b5060208310610133831016604e8410600b841016171561181a575081810a610b15565b6118248383611746565b807fffffffffffffffffffffffffffffffffffffffffffffffffffffffffffffffff0482111561185657611856611717565b029392505050565b6000610a89838361179f565b60007fffffffffffffffffffffffffffffffffffffffffffffffffffffffffffffffff82141561189c5761189c611717565b5060010190565b6000602082840312156118b557600080fd5b5051919050565b600082198211156118cf576118cf611717565b500190565b6000602082840312156118e657600080fd5b815160ff81168114610a8957600080fd5b60008282101561190957611909611717565b500390565b6000817fffffffffffffffffffffffffffffffffffffffffffffffffffffffffffffffff048311821515161561194657611946611717565b500290565b6000806040838503121561195e57600080fd5b505080516020909101519092909150565b600060ff821660ff84168082101561198957611989611717565b90039392505050565b6000610a8960ff84168361179f56fea2646970667358221220ea259f46499f267d55e23eb534fe0d19fbc30f598a70a524abab6f1b4d04918c64736f6c63430008090033",
  "devdoc": {
    "details": "onchain liquidity  dollar  ,               oracle attack     .",
    "kind": "dev",
    "methods": {
      "consultPrice(address)": {
        "details": "( / DAI / USDC / USDT)     ,  0 ",
        "params": {
          "token": "  "
        }
      },
      "consultPriceFrom(address,address)": {
        "details": "( / DAI / USDC / USDT)     , referenceToken    ",
        "params": {
          "token": "  "
        }
      },
      "owner()": {
        "details": "Returns the address of the current owner."
      },
      "renounceOwnership()": {
        "details": "Leaves the contract without owner. It will not be possible to call `onlyOwner` functions anymore. Can only be called by the current owner. NOTE: Renouncing ownership will leave the contract without an owner, thereby removing any functionality that is only available to the owner."
      },
      "transferOwnership(address)": {
        "details": "Transfers ownership of the contract to a new account (`newOwner`). Can only be called by the current owner."
      }
    },
    "stateVariables": {
      "DECIMAL": {
        "details": " price = 700574 , 0.700574$  "
      }
    },
    "version": 1
  },
  "userdoc": {
    "kind": "user",
    "methods": {
      "DECIMAL()": {
        "notice": "dollar   unit, (units = 6)"
      },
      "consultKlayPrice()": {
        "notice": "   (units : 10 ^ -6 $)"
      },
      "consultPrice(address)": {
        "notice": " price  (units : 10 ^ -6 $)"
      },
      "consultPriceFrom(address,address)": {
        "notice": "referenceToken    price  (units : 10 ^ -6 $)"
      }
    },
    "notice": "     Token Dollar   ",
    "version": 1
  },
  "storageLayout": {
    "storage": [
      {
        "astId": 130,
        "contract": "contracts/PriceOracle.sol:PriceOracle",
        "label": "_initialized",
        "offset": 0,
        "slot": "0",
        "type": "t_uint8"
      },
      {
        "astId": 133,
        "contract": "contracts/PriceOracle.sol:PriceOracle",
        "label": "_initializing",
        "offset": 1,
        "slot": "0",
        "type": "t_bool"
      },
      {
        "astId": 549,
        "contract": "contracts/PriceOracle.sol:PriceOracle",
        "label": "__gap",
        "offset": 0,
        "slot": "1",
        "type": "t_array(t_uint256)50_storage"
      },
      {
        "astId": 10,
        "contract": "contracts/PriceOracle.sol:PriceOracle",
        "label": "_owner",
        "offset": 0,
        "slot": "51",
        "type": "t_address"
      },
      {
        "astId": 122,
        "contract": "contracts/PriceOracle.sol:PriceOracle",
        "label": "__gap",
        "offset": 0,
        "slot": "52",
        "type": "t_array(t_uint256)49_storage"
      },
      {
        "astId": 689,
        "contract": "contracts/PriceOracle.sol:PriceOracle",
        "label": "isPairReserve",
        "offset": 0,
        "slot": "101",
        "type": "t_mapping(t_address,t_bool)"
      },
      {
        "astId": 692,
        "contract": "contracts/PriceOracle.sol:PriceOracle",
        "label": "pairReserves",
        "offset": 0,
        "slot": "102",
        "type": "t_array(t_address)dyn_storage"
      },
      {
        "astId": 696,
        "contract": "contracts/PriceOracle.sol:PriceOracle",
        "label": "isStableCoin",
        "offset": 0,
        "slot": "103",
        "type": "t_mapping(t_address,t_bool)"
      },
      {
        "astId": 699,
        "contract": "contracts/PriceOracle.sol:PriceOracle",
        "label": "stableCoins",
        "offset": 0,
        "slot": "104",
        "type": "t_array(t_address)dyn_storage"
      },
      {
        "astId": 703,
        "contract": "contracts/PriceOracle.sol:PriceOracle",
        "label": "isWklay",
        "offset": 0,
        "slot": "105",
        "type": "t_mapping(t_address,t_bool)"
      },
      {
        "astId": 706,
        "contract": "contracts/PriceOracle.sol:PriceOracle",
        "label": "wklays",
        "offset": 0,
        "slot": "106",
        "type": "t_array(t_address)dyn_storage"
      },
      {
        "astId": 708,
        "contract": "contracts/PriceOracle.sol:PriceOracle",
        "label": "klayOracle",
        "offset": 0,
        "slot": "107",
        "type": "t_address"
      }
    ],
    "types": {
      "t_address": {
        "encoding": "inplace",
        "label": "address",
        "numberOfBytes": "20"
      },
      "t_array(t_address)dyn_storage": {
        "base": "t_address",
        "encoding": "dynamic_array",
        "label": "address[]",
        "numberOfBytes": "32"
      },
      "t_array(t_uint256)49_storage": {
        "base": "t_uint256",
        "encoding": "inplace",
        "label": "uint256[49]",
        "numberOfBytes": "1568"
      },
      "t_array(t_uint256)50_storage": {
        "base": "t_uint256",
        "encoding": "inplace",
        "label": "uint256[50]",
        "numberOfBytes": "1600"
      },
      "t_bool": {
        "encoding": "inplace",
        "label": "bool",
        "numberOfBytes": "1"
      },
      "t_mapping(t_address,t_bool)": {
        "encoding": "mapping",
        "key": "t_address",
        "label": "mapping(address => bool)",
        "numberOfBytes": "32",
        "value": "t_bool"
      },
      "t_uint256": {
        "encoding": "inplace",
        "label": "uint256",
        "numberOfBytes": "32"
      },
      "t_uint8": {
        "encoding": "inplace",
        "label": "uint8",
        "numberOfBytes": "1"
      }
    }
  }
}